{
  "abi": [
    {
      "type": "function",
      "name": "campaignIdCounter",
      "inputs": [],
      "outputs": [
        {
          "name": "",
          "type": "uint256",
          "internalType": "uint256"
        }
      ],
      "stateMutability": "view"
    },
    {
      "type": "function",
      "name": "campaigns",
      "inputs": [
        {
          "name": "",
          "type": "uint256",
          "internalType": "uint256"
        }
      ],
      "outputs": [
        {
          "name": "name",
          "type": "string",
          "internalType": "string"
        },
        {
          "name": "description",
          "type": "string",
          "internalType": "string"
        },
        {
          "name": "goal",
          "type": "uint256",
          "internalType": "uint256"
        },
        {
          "name": "deadLine",
          "type": "uint256",
          "internalType": "uint256"
        },
        {
          "name": "raisedAmount",
          "type": "uint256",
          "internalType": "uint256"
        },
        {
          "name": "startTime",
          "type": "uint256",
          "internalType": "uint256"
        },
        {
          "name": "isSuccessful",
          "type": "bool",
          "internalType": "bool"
        },
        {
          "name": "isLocked",
          "type": "bool",
          "internalType": "bool"
        },
        {
          "name": "isWithdrawn",
          "type": "bool",
          "internalType": "bool"
        },
        {
          "name": "owner",
          "type": "address",
          "internalType": "address"
        }
      ],
      "stateMutability": "view"
    },
    {
      "type": "function",
      "name": "contribute",
      "inputs": [
        {
          "name": "campaignId",
          "type": "uint256",
          "internalType": "uint256"
        }
      ],
      "outputs": [],
      "stateMutability": "payable"
    },
    {
      "type": "function",
      "name": "createCampaign",
      "inputs": [
        {
          "name": "name",
          "type": "string",
          "internalType": "string"
        },
        {
          "name": "description",
          "type": "string",
          "internalType": "string"
        },
        {
          "name": "goal",
          "type": "uint256",
          "internalType": "uint256"
        },
        {
          "name": "deadLine",
          "type": "uint256",
          "internalType": "uint256"
        }
      ],
      "outputs": [],
      "stateMutability": "nonpayable"
    },
    {
      "type": "function",
      "name": "getCampaign",
      "inputs": [
        {
          "name": "campaignId",
          "type": "uint256",
          "internalType": "uint256"
        }
      ],
      "outputs": [
        {
          "name": "",
          "type": "string",
          "internalType": "string"
        },
        {
          "name": "",
          "type": "string",
          "internalType": "string"
        },
        {
          "name": "",
          "type": "uint256",
          "internalType": "uint256"
        },
        {
          "name": "",
          "type": "uint256",
          "internalType": "uint256"
        },
        {
          "name": "",
          "type": "uint256",
          "internalType": "uint256"
        },
        {
          "name": "",
          "type": "bool",
          "internalType": "bool"
        },
        {
          "name": "",
          "type": "bool",
          "internalType": "bool"
        },
        {
          "name": "",
          "type": "address",
          "internalType": "address"
        }
      ],
      "stateMutability": "view"
    },
    {
      "type": "function",
      "name": "getContributorAmount",
      "inputs": [
        {
          "name": "campaignId",
          "type": "uint256",
          "internalType": "uint256"
        },
        {
          "name": "contributorAddress",
          "type": "address",
          "internalType": "address"
        }
      ],
      "outputs": [
        {
          "name": "",
          "type": "uint256",
          "internalType": "uint256"
        }
      ],
      "stateMutability": "view"
    },
    {
      "type": "function",
      "name": "isContributorRefunded",
      "inputs": [
        {
          "name": "campaignId",
          "type": "uint256",
          "internalType": "uint256"
        },
        {
          "name": "contributorAddress",
          "type": "address",
          "internalType": "address"
        }
      ],
      "outputs": [
        {
          "name": "",
          "type": "bool",
          "internalType": "bool"
        }
      ],
      "stateMutability": "view"
    },
    {
      "type": "function",
      "name": "lockCampaign",
      "inputs": [
        {
          "name": "campaignId",
          "type": "uint256",
          "internalType": "uint256"
        }
      ],
      "outputs": [],
      "stateMutability": "nonpayable"
    },
    {
      "type": "function",
      "name": "refund",
      "inputs": [
        {
          "name": "campaignId",
          "type": "uint256",
          "internalType": "uint256"
        }
      ],
      "outputs": [],
      "stateMutability": "nonpayable"
    },
    {
      "type": "function",
      "name": "withdraw",
      "inputs": [
        {
          "name": "campaignId",
          "type": "uint256",
          "internalType": "uint256"
        }
      ],
      "outputs": [],
      "stateMutability": "nonpayable"
    }
  ],
  "bytecode": {
    "object": "0x60806040525f6001553480156012575f5ffd5b506121d7806100205f395ff3fe608060405260043610610090575f3560e01c80635598f8cc116100585780635598f8cc1461018f57806361c47cc9146101d257806368c1ccde1461020e578063a318f26914610236578063c1cbbca71461025e57610090565b8063141961bc14610094578063278ecde1146100d95780632e1a7d4d146101015780632e6186761461012957806341159a7d14610153575b5f5ffd5b34801561009f575f5ffd5b506100ba60048036038101906100b59190611089565b61027a565b6040516100d09a9998979695949392919061118c565b60405180910390f35b3480156100e4575f5ffd5b506100ff60048036038101906100fa9190611089565b61041b565b005b34801561010c575f5ffd5b5061012760048036038101906101229190611089565b610612565b005b348015610134575f5ffd5b5061013d610837565b60405161014a9190611234565b60405180910390f35b34801561015e575f5ffd5b5061017960048036038101906101749190611277565b61083d565b60405161018691906112b5565b60405180910390f35b34801561019a575f5ffd5b506101b560048036038101906101b09190611089565b6108a9565b6040516101c99897969594939291906112ce565b60405180910390f35b3480156101dd575f5ffd5b506101f860048036038101906101f39190611277565b610a53565b6040516102059190611234565b60405180910390f35b348015610219575f5ffd5b50610234600480360381019061022f9190611089565b610ab2565b005b348015610241575f5ffd5b5061025c60048036038101906102579190611484565b610c5d565b005b61027860048036038101906102739190611089565b610e4e565b005b5f602052805f5260405f205f91509050805f0180546102989061154d565b80601f01602080910402602001604051908101604052809291908181526020018280546102c49061154d565b801561030f5780601f106102e65761010080835404028352916020019161030f565b820191905f5260205f20905b8154815290600101906020018083116102f257829003601f168201915b5050505050908060010180546103249061154d565b80601f01602080910402602001604051908101604052809291908181526020018280546103509061154d565b801561039b5780601f106103725761010080835404028352916020019161039b565b820191905f5260205f20905b81548152906001019060200180831161037e57829003601f168201915b505050505090806002015490806003015490806004015490806005015490806006015f9054906101000a900460ff16908060060160019054906101000a900460ff16908060060160029054906101000a900460ff16908060060160039054906101000a900473ffffffffffffffffffffffffffffffffffffffff1690508a565b5f5f5f8381526020019081526020015f2090505f816007015f3373ffffffffffffffffffffffffffffffffffffffff1673ffffffffffffffffffffffffffffffffffffffff1681526020019081526020015f2090508160060160019054906101000a900460ff166104c1576040517f08c379a00000000000000000000000000000000000000000000000000000000081526004016104b8906115c7565b60405180910390fd5b806001015f9054906101000a900460ff1615610512576040517f08c379a000000000000000000000000000000000000000000000000000000000815260040161050990611655565b60405180910390fd5b816006015f9054906101000a900460ff1615610563576040517f08c379a000000000000000000000000000000000000000000000000000000000815260040161055a906116e3565b60405180910390fd5b5f815f015490505f81116105ac576040517f08c379a00000000000000000000000000000000000000000000000000000000081526004016105a39061174b565b60405180910390fd5b6001826001015f6101000a81548160ff0219169083151502179055503373ffffffffffffffffffffffffffffffffffffffff166108fc8290811502906040515f60405180830381858888f1935050505015801561060b573d5f5f3e3d5ffd5b5050505050565b5f5f5f8381526020019081526020015f2090508060060160039054906101000a900473ffffffffffffffffffffffffffffffffffffffff1673ffffffffffffffffffffffffffffffffffffffff163373ffffffffffffffffffffffffffffffffffffffff16146106b7576040517f08c379a00000000000000000000000000000000000000000000000000000000081526004016106ae906117d9565b60405180910390fd5b8060060160019054906101000a900460ff16610708576040517f08c379a00000000000000000000000000000000000000000000000000000000081526004016106ff906115c7565b60405180910390fd5b806006015f9054906101000a900460ff16610758576040517f08c379a000000000000000000000000000000000000000000000000000000000815260040161074f90611841565b60405180910390fd5b8060060160029054906101000a900460ff16156107aa576040517f08c379a00000000000000000000000000000000000000000000000000000000081526004016107a1906118cf565b60405180910390fd5b60018160060160026101000a81548160ff0219169083151502179055508060060160039054906101000a900473ffffffffffffffffffffffffffffffffffffffff1673ffffffffffffffffffffffffffffffffffffffff166108fc826004015490811502906040515f60405180830381858888f19350505050158015610832573d5f5f3e3d5ffd5b505050565b60015481565b5f5f5f5f8581526020019081526020015f209050806007015f8473ffffffffffffffffffffffffffffffffffffffff1673ffffffffffffffffffffffffffffffffffffffff1681526020019081526020015f206001015f9054906101000a900460ff1691505092915050565b6060805f5f5f5f5f5f5f5f5f8b81526020019081526020015f209050805f0181600101826002015483600301548460040154856006015f9054906101000a900460ff168660060160019054906101000a900460ff168760060160039054906101000a900473ffffffffffffffffffffffffffffffffffffffff1687805461092f9061154d565b80601f016020809104026020016040519081016040528092919081815260200182805461095b9061154d565b80156109a65780601f1061097d576101008083540402835291602001916109a6565b820191905f5260205f20905b81548152906001019060200180831161098957829003601f168201915b505050505097508680546109b99061154d565b80601f01602080910402602001604051908101604052809291908181526020018280546109e59061154d565b8015610a305780601f10610a0757610100808354040283529160200191610a30565b820191905f5260205f20905b815481529060010190602001808311610a1357829003601f168201915b505050505096509850985098509850985098509850985050919395975091939597565b5f5f5f5f8581526020019081526020015f209050806007015f8473ffffffffffffffffffffffffffffffffffffffff1673ffffffffffffffffffffffffffffffffffffffff1681526020019081526020015f205f015491505092915050565b5f5f5f8381526020019081526020015f2090508060060160039054906101000a900473ffffffffffffffffffffffffffffffffffffffff1673ffffffffffffffffffffffffffffffffffffffff163373ffffffffffffffffffffffffffffffffffffffff1614610b57576040517f08c379a0000000000000000000000000000000000000000000000000000000008152600401610b4e9061195d565b60405180910390fd5b8060060160019054906101000a900460ff1615610ba9576040517f08c379a0000000000000000000000000000000000000000000000000000000008152600401610ba0906119c5565b60405180910390fd5b8060030154421015610bf0576040517f08c379a0000000000000000000000000000000000000000000000000000000008152600401610be790611a2d565b60405180910390fd5b8060020154816004015410610c20576001816006015f6101000a81548160ff021916908315150217905550610c3c565b5f816006015f6101000a81548160ff0219169083151502179055505b60018160060160016101000a81548160ff0219169083151502179055505050565b5f845111610ca0576040517f08c379a0000000000000000000000000000000000000000000000000000000008152600401610c9790611a95565b60405180910390fd5b5f835111610ce3576040517f08c379a0000000000000000000000000000000000000000000000000000000008152600401610cda90611b23565b60405180910390fd5b5f8211610d25576040517f08c379a0000000000000000000000000000000000000000000000000000000008152600401610d1c90611bb1565b60405180910390fd5b428111610d67576040517f08c379a0000000000000000000000000000000000000000000000000000000008152600401610d5e90611c3f565b60405180910390fd5b5f5f5f60015f815480929190610d7c90611c8a565b9190505581526020019081526020015f209050338160060160036101000a81548173ffffffffffffffffffffffffffffffffffffffff021916908373ffffffffffffffffffffffffffffffffffffffff16021790555084815f019081610de29190611e71565b5083816001019081610df49190611e71565b508281600201819055508181600301819055504281600501819055505f816006015f6101000a81548160ff0219169083151502179055505f8160060160016101000a81548160ff0219169083151502179055505050505050565b5f5f5f8381526020019081526020015f2090505f816005015411610ea7576040517f08c379a0000000000000000000000000000000000000000000000000000000008152600401610e9e90611f8a565b60405180910390fd5b80600301544210610eed576040517f08c379a0000000000000000000000000000000000000000000000000000000008152600401610ee490611ff2565b60405180910390fd5b8060060160019054906101000a900460ff1615610f3f576040517f08c379a0000000000000000000000000000000000000000000000000000000008152600401610f369061205a565b60405180910390fd5b8060020154816004015410610f89576040517f08c379a0000000000000000000000000000000000000000000000000000000008152600401610f80906120c2565b60405180910390fd5b5f3411610fcb576040517f08c379a0000000000000000000000000000000000000000000000000000000008152600401610fc290612150565b60405180910390fd5b5f816007015f3373ffffffffffffffffffffffffffffffffffffffff1673ffffffffffffffffffffffffffffffffffffffff1681526020019081526020015f20905034815f015f82825461101f919061216e565b9250508190555034826004015f828254611039919061216e565b92505081905550505050565b5f604051905090565b5f5ffd5b5f5ffd5b5f819050919050565b61106881611056565b8114611072575f5ffd5b50565b5f813590506110838161105f565b92915050565b5f6020828403121561109e5761109d61104e565b5b5f6110ab84828501611075565b91505092915050565b5f81519050919050565b5f82825260208201905092915050565b8281835e5f83830152505050565b5f601f19601f8301169050919050565b5f6110f6826110b4565b61110081856110be565b93506111108185602086016110ce565b611119816110dc565b840191505092915050565b61112d81611056565b82525050565b5f8115159050919050565b61114781611133565b82525050565b5f73ffffffffffffffffffffffffffffffffffffffff82169050919050565b5f6111768261114d565b9050919050565b6111868161116c565b82525050565b5f610140820190508181035f8301526111a5818d6110ec565b905081810360208301526111b9818c6110ec565b90506111c8604083018b611124565b6111d5606083018a611124565b6111e26080830189611124565b6111ef60a0830188611124565b6111fc60c083018761113e565b61120960e083018661113e565b61121761010083018561113e565b61122561012083018461117d565b9b9a5050505050505050505050565b5f6020820190506112475f830184611124565b92915050565b6112568161116c565b8114611260575f5ffd5b50565b5f813590506112718161124d565b92915050565b5f5f6040838503121561128d5761128c61104e565b5b5f61129a85828601611075565b92505060206112ab85828601611263565b9150509250929050565b5f6020820190506112c85f83018461113e565b92915050565b5f610100820190508181035f8301526112e7818b6110ec565b905081810360208301526112fb818a6110ec565b905061130a6040830189611124565b6113176060830188611124565b6113246080830187611124565b61133160a083018661113e565b61133e60c083018561113e565b61134b60e083018461117d565b9998505050505050505050565b5f5ffd5b5f5ffd5b7f4e487b71000000000000000000000000000000000000000000000000000000005f52604160045260245ffd5b611396826110dc565b810181811067ffffffffffffffff821117156113b5576113b4611360565b5b80604052505050565b5f6113c7611045565b90506113d3828261138d565b919050565b5f67ffffffffffffffff8211156113f2576113f1611360565b5b6113fb826110dc565b9050602081019050919050565b828183375f83830152505050565b5f611428611423846113d8565b6113be565b9050828152602081018484840111156114445761144361135c565b5b61144f848285611408565b509392505050565b5f82601f83011261146b5761146a611358565b5b813561147b848260208601611416565b91505092915050565b5f5f5f5f6080858703121561149c5761149b61104e565b5b5f85013567ffffffffffffffff8111156114b9576114b8611052565b5b6114c587828801611457565b945050602085013567ffffffffffffffff8111156114e6576114e5611052565b5b6114f287828801611457565b935050604061150387828801611075565b925050606061151487828801611075565b91505092959194509250565b7f4e487b71000000000000000000000000000000000000000000000000000000005f52602260045260245ffd5b5f600282049050600182168061156457607f821691505b60208210810361157757611576611520565b5b50919050565b7f43616d706169676e206973206e6f74206c6f636b6564207965740000000000005f82015250565b5f6115b1601a836110be565b91506115bc8261157d565b602082019050919050565b5f6020820190508181035f8301526115de816115a5565b9050919050565b7f436f6e7472696275746f722068617320616c7265616479206265656e207265665f8201527f756e646564000000000000000000000000000000000000000000000000000000602082015250565b5f61163f6025836110be565b915061164a826115e5565b604082019050919050565b5f6020820190508181035f83015261166c81611633565b9050919050565b7f43616d706169676e20776173207375636365737366756c2c206e6f20726566755f8201527f6e647320616c6c6f776564000000000000000000000000000000000000000000602082015250565b5f6116cd602b836110be565b91506116d882611673565b604082019050919050565b5f6020820190508181035f8301526116fa816116c1565b9050919050565b7f4e6f20636f6e747269627574696f6e20746f20726566756e64000000000000005f82015250565b5f6117356019836110be565b915061174082611701565b602082019050919050565b5f6020820190508181035f83015261176281611729565b9050919050565b7f4f6e6c7920746865206f776e65722063616e2077697468647261772066756e645f8201527f7300000000000000000000000000000000000000000000000000000000000000602082015250565b5f6117c36021836110be565b91506117ce82611769565b604082019050919050565b5f6020820190508181035f8301526117f0816117b7565b9050919050565b7f43616d706169676e20776173206e6f74207375636365737366756c00000000005f82015250565b5f61182b601b836110be565b9150611836826117f7565b602082019050919050565b5f6020820190508181035f8301526118588161181f565b9050919050565b7f46756e6473206861766520616c7265616479206265656e2077697468647261775f8201527f6e00000000000000000000000000000000000000000000000000000000000000602082015250565b5f6118b96021836110be565b91506118c48261185f565b604082019050919050565b5f6020820190508181035f8301526118e6816118ad565b9050919050565b7f4f6e6c7920746865206f776e65722063616e206c6f636b207468652063616d705f8201527f6169676e00000000000000000000000000000000000000000000000000000000602082015250565b5f6119476024836110be565b9150611952826118ed565b604082019050919050565b5f6020820190508181035f8301526119748161193b565b9050919050565b7f43616d706169676e20697320616c7265616479206c6f636b65640000000000005f82015250565b5f6119af601a836110be565b91506119ba8261197b565b602082019050919050565b5f6020820190508181035f8301526119dc816119a3565b9050919050565b7f43616e6e6f74206c6f636b206265666f726520646561646c696e6500000000005f82015250565b5f611a17601b836110be565b9150611a22826119e3565b602082019050919050565b5f6020820190508181035f830152611a4481611a0b565b9050919050565b7f43616d706169676e206e616d652063616e6e6f7420626520656d7074790000005f82015250565b5f611a7f601d836110be565b9150611a8a82611a4b565b602082019050919050565b5f6020820190508181035f830152611aac81611a73565b9050919050565b7f43616d706169676e206465736372697074696f6e2063616e6e6f7420626520655f8201527f6d70747900000000000000000000000000000000000000000000000000000000602082015250565b5f611b0d6024836110be565b9150611b1882611ab3565b604082019050919050565b5f6020820190508181035f830152611b3a81611b01565b9050919050565b7f43616d706169676e20676f616c206d75737420626520677265617465722074685f8201527f616e207a65726f00000000000000000000000000000000000000000000000000602082015250565b5f611b9b6027836110be565b9150611ba682611b41565b604082019050919050565b5f6020820190508181035f830152611bc881611b8f565b9050919050565b7f43616d706169676e20646561646c696e65206d75737420626520696e207468655f8201527f2066757475726500000000000000000000000000000000000000000000000000602082015250565b5f611c296027836110be565b9150611c3482611bcf565b604082019050919050565b5f6020820190508181035f830152611c5681611c1d565b9050919050565b7f4e487b71000000000000000000000000000000000000000000000000000000005f52601160045260245ffd5b5f611c9482611056565b91507fffffffffffffffffffffffffffffffffffffffffffffffffffffffffffffffff8203611cc657611cc5611c5d565b5b600182019050919050565b5f819050815f5260205f209050919050565b5f6020601f8301049050919050565b5f82821b905092915050565b5f60088302611d2d7fffffffffffffffffffffffffffffffffffffffffffffffffffffffffffffffff82611cf2565b611d378683611cf2565b95508019841693508086168417925050509392505050565b5f819050919050565b5f611d72611d6d611d6884611056565b611d4f565b611056565b9050919050565b5f819050919050565b611d8b83611d58565b611d9f611d9782611d79565b848454611cfe565b825550505050565b5f5f905090565b611db6611da7565b611dc1818484611d82565b505050565b5b81811015611de457611dd95f82611dae565b600181019050611dc7565b5050565b601f821115611e2957611dfa81611cd1565b611e0384611ce3565b81016020851015611e12578190505b611e26611e1e85611ce3565b830182611dc6565b50505b505050565b5f82821c905092915050565b5f611e495f1984600802611e2e565b1980831691505092915050565b5f611e618383611e3a565b9150826002028217905092915050565b611e7a826110b4565b67ffffffffffffffff811115611e9357611e92611360565b5b611e9d825461154d565b611ea8828285611de8565b5f60209050601f831160018114611ed9575f8415611ec7578287015190505b611ed18582611e56565b865550611f38565b601f198416611ee786611cd1565b5f5b82811015611f0e57848901518255600182019150602085019450602081019050611ee9565b86831015611f2b5784890151611f27601f891682611e3a565b8355505b6001600288020188555050505b505050505050565b7f43616d706169676e20686176656e2774206265656e20737461727465640000005f82015250565b5f611f74601d836110be565b9150611f7f82611f40565b602082019050919050565b5f6020820190508181035f830152611fa181611f68565b9050919050565b7f43616d706169676e2068617320656e64656400000000000000000000000000005f82015250565b5f611fdc6012836110be565b9150611fe782611fa8565b602082019050919050565b5f6020820190508181035f83015261200981611fd0565b9050919050565b7f43616d706169676e206973206c6f636b656400000000000000000000000000005f82015250565b5f6120446012836110be565b915061204f82612010565b602082019050919050565b5f6020820190508181035f83015261207181612038565b9050919050565b7f43616d706169676e20676f616c20686173206265656e207265616368656400005f82015250565b5f6120ac601e836110be565b91506120b782612078565b602082019050919050565b5f6020820190508181035f8301526120d9816120a0565b9050919050565b7f436f6e747269627574696f6e206d7573742062652067726561746572207468615f8201527f6e207a65726f0000000000000000000000000000000000000000000000000000602082015250565b5f61213a6026836110be565b9150612145826120e0565b604082019050919050565b5f6020820190508181035f8301526121678161212e565b9050919050565b5f61217882611056565b915061218383611056565b925082820190508082111561219b5761219a611c5d565b5b9291505056fea2646970667358221220be975e8693b6f167d9e36907bfcfa2fb421bc07d090700c26539d38b191fc2ad64736f6c634300081e0033",
    "linkReferences": {}
  },
  "methodIdentifiers": {
    "campaignIdCounter()": "2e618676",
    "campaigns(uint256)": "141961bc",
    "contribute(uint256)": "c1cbbca7",
    "createCampaign(string,string,uint256,uint256)": "a318f269",
    "getCampaign(uint256)": "5598f8cc",
    "getContributorAmount(uint256,address)": "61c47cc9",
    "isContributorRefunded(uint256,address)": "41159a7d",
    "lockCampaign(uint256)": "68c1ccde",
    "refund(uint256)": "278ecde1",
    "withdraw(uint256)": "2e1a7d4d"
  },
  "id": 0
}